:1000000019C133C132C131C130C12FC12EC12DC17F
:100010002CC12BC12AC129C128C127C126C125C194
:1000200024C123C122C121C120C11FC11EC11DC1C4
:100030001CC11BC1000000000301060209030C04DF
:100040000F051206150718081B091E0A210B240CA0
:10005000270D2A0E2D0F3110341137123A133D148B
:1000600040154316461749184C194F1A521B551C78
:10007000581D5B1E5E1F6120642167226A236D2468
:1000800070257326762779287C297F2A822B852C58
:10009000882D8B2E8E2F9230953198329B339E3443
:1000A000A135A436A737AA38AD39B03AB33BB63C30
:1000B000B93DBC3EBF3FC240C541C842CB43CE4420
:1000C000D145D446D747DA48DD49E04AE34BE64C10
:1000D000E94DEC4EEF4FF350F651F952FC53FF54FB
:1000E0000256055708580B590E5A115B145C175DE0
:1000F0001A5E1D5F20602361266229632C642F65D0
:100100003266356738683B693E6A416B446C476DBF
:100110004A6E4D6F5170547157725A735D746075A9
:100120006376667769786C796F7A727B757C787D97
:100130007B7E7E7F8180848187828A838D84908587
:100140009386968799889C899F8AA28BA58CA88D77
:10015000AB8EAE8FB290B591B892BB93BE94C19561
:10016000C496C797CA98CD99D09AD39BD69CD99D4F
:10017000DC9EDF9FE2A0E5A1E8A2EBA3EEA4F1A53F
:10018000F4A6F7A7FAA8FDA900AB03AC06AD09AE2B
:100190000CAF10B013B116B219B31CB41FB522B610
:1001A00025B728B82BB92EBA31BB34BC37BD3ABEFF
:1001B0003DBF40C043C146C249C34CC44FC552C6EF
:1001C00055C758C85BC95ECA61CB64CC67CD6ACEDF
:1001D0006DCF71D074D177D27AD37DD480D583D6C8
:1001E00086D789D88CD98FDA92DB95DC98DD9BDEB7
:1001F0009EDFA1E0A4E1A7E2AAE3ADE4B0E5B3E6A7
:10020000B6E7B9E8BCE9BFEAC2EBC5ECC8EDCBEE96
:10021000CEEFD2F0D5F1D8F2DBF3DEF4E1F5E4F67F
:10022000E7F7EAF8EDF9F0FAF3FBF6FCF9FDFCFE6E
:10023000FFFFFFFF11241FBECFEFD4E0DEBFCDBF15
:1002400011E0A0E0B1E0E2E0F7E002C005900D921D
:10025000A230B107D9F711E0A2E0B1E001C01D92D0
:10026000A132B107E1F7A3D016C2CACE811106C0F0
:1002700089B18295817091E08927089589B180952F
:10028000881F8827881F0895811105C086B183FBC8
:10029000882780F904C086B182FB882780F991E025
:1002A00089270895811108C0662319F05B98589A30
:1002B00008955B9A58980895662319F05E985D9AA0
:1002C00008955E9A5D980895811103C05B985898CF
:1002D00008955E985D98089560911A0180911801C3
:1002E0008111626080911B0181116460809119010C
:1002F00081116860609580E090E0D7D108955998A9
:100300000895299808955A98089528980895249A48
:100310002C98549857985C9A5F9A3B983A98439ACD
:10032000429A539A509A519A529A569A559A219AA9
:10033000209AE5DFE6DFE7DFE8DFEAE7F0E080814B
:100340008760808380818068808380E6809300015D
:1003500080937C0080818064808380E090E09DD1E8
:100360008095982F917090931A0181FB992790F9AD
:100370009093180182FB992790F990931B0183FBBE
:10038000882780F98093190110920B0110920A01BD
:1003900010921301109212011092800085E0809358
:1003A0008100E1ECF0E08081877E80830895A4E005
:1003B000B0E0ECEDF1E087C184B714BE809160003D
:1003C00088618093600010926000A1DF1092170195
:1003D0001092160181E090E0A0E0B0E0809302016D
:1003E00090930301A0930401B093050180917A00DA
:1003F00086FF0BC132E1A32E31E0B32E0AE111E0FA
:1004000040E1642E41E0742E5CE0C52E51E0D52E13
:1004100068E1E62E61E0F62E912C892D35DF882EDD
:10042000F5018081811115C1882071F0209184002F
:1004300030918500F60131832083F301108204C0DE
:100440002034310508F01DC1F50181925F019394BC
:100450000F5F1F4FFFEF6F1A7F0A8FEFE81AF80A3E
:1004600092E0C90ED11CE2E09E12D7CF409002016B
:10047000509003016090040170900501AAE0AA2E3B
:10048000A1E0BA2E06E011E0B6E18B2EB1E09B2E82
:1004900084E1E82E81E0F82E9CE1292E91E0392EAE
:1004A00028E1C22E21E0D22E1C821B825B81852F87
:1004B0005983DCDE482F5981811104C0F601808107
:1004C000882389F18FEF91E0F801918380834423A1
:1004D00051F1F4018081811132C0F101208131811B
:1004E0004216530620F091E02F3F3F4F09F490E071
:1004F000EB81FC81E65EFE4F8081882319F0F701D5
:1005000080819827F7019083692F852F4A839983EB
:10051000C9DE99814A81992311F081E001C082E00E
:10052000F50180830CC0F4018081882341F0F6013D
:100530008081811104C0852F4A83C6DE4A81F4017F
:1005400041934F01230166247724F8018081918132
:10055000009739F0019791838083892B11F4F5017D
:1005600010828B819C8101969C838B839FEFA91ABB
:10057000B90A0E5F1F4FEFEFCE1ADE0AFFEFEF1A38
:10058000FF0A82E0280E311CEB81FC81329709F0D2
:100590008DCF80910A01811102C0B1DE06C0813089
:1005A00019F4ADDE5A9A02C0599AADDE80910B0162
:1005B000811102C0A6DE06C0813019F4A2DE289A9D
:1005C00002C0299AA2DE409102015091030160917C
:1005D000040170910501DB01CA0181709927AA27E6
:1005E000BB27B095A095909581959F4FAF4FBF4F7A
:1005F00081709927AA27B07D76956795579547957D
:1006000084279527A627B727E9CE20912001E091DE
:100610007900F0E0EE0FFF1FEC5CFF4F85919491A5
:10062000E1E0E21BF0E0EE0FFF1FE45EFE4F91837E
:10063000808381E0820F817080932001909100017E
:10064000982B90937C0080917A00806480937A004C
:10065000D1CEF30180818111F7CE209184003091B9
:100660008500F60140815181241B350B2A36F8E1C3
:100670003F0708F4E5CE91E0F3019083F701808114
:1006800005C08110E1CEF801808191E08927808347
:10069000892D22DED9CEF89432C0F999FECF92BDD1
:1006A00081BDF89A992780B50895262FF999FECF34
:1006B0001FBA92BD81BD20BD0FB6F894FA9AF99A7F
:1006C0000FBE019608952F923F924F925F926F92C4
:1006D0007F928F929F92AF92BF92CF92DF92EF92D2
:1006E000FF920F931F93CF93DF93CDB7DEB7CA1B53
:1006F000DB0B0FB6F894DEBF0FBECDBF0994F894A4
:02070000FFCF29
:020702004000B5
:00000001FF
