:1000000019C033C032C031C030C02FC02EC02DC087
:100010002CC02BC02AC029C028C027C026C025C09C
:1000200024C023C022C021C020C01FC01EC01DC0CC
:100030001CC01BC011241FBECFEFD4E0DEBFCDBF5C
:1000400011E0A0E0B1E0E4EDF9E002C005900D920E
:10005000A430B107D9F721E0A4E0B1E001C01D92BE
:10006000A734B207E1F732D43DC4CACF80917A00F9
:1000700086FDFCCF80911501209178009091790048
:10008000E82FF0E0EE0FFF1FEC5FFE4F392F3183BA
:1000900020838F5F8093150190911401891710F0D0
:1000A0001092150180911501877090910001892BA4
:1000B00080937C0080917A00806480937A00089518
:1000C00054985C9AE0E4F1E0108257985F9A1182AC
:1000D00008953B983A98439A429AEEE3F1E01182F0
:1000E00010820895539A509A569A559A089590E01E
:1000F0004AEF50E09A01261B370B880F991F8E5B41
:100100009E4FFC0137FF03C01182108208952B3FE0
:1001100031051CF431832083089551834083089571
:10012000CF93DF93EAE7F0E080818760808380816E
:1001300080688083109215018091000180937C007B
:1001400080818064808382E08093140180E68093C4
:10015000000181E080934601C4E0D1E06B8170E052
:1001600080E0C5DF698170E081E0C1DFDF91CF9180
:10017000089590E080E016D4982F909580FF0DC0F0
:1001800091FF03C081E08093010192FD09C093FFBC
:1001900009C081E080930201089510920101F5CF1A
:1001A000109202010895811107C086B183FB882750
:1001B00080F991E08927089586B182FB882780F92C
:1001C000F8CF809184009091850020912801309192
:1001D00029018217930738F080918400909185005F
:1001E000821B930B08958091840090918500019764
:1001F000F7CF80912801909129012091260130911B
:1002000027018217930718F0821B930B089501971B
:10021000FBCF809128019091290190932701809331
:10022000260180918400909185009093290180930C
:10023000280180912401909125018230910528F4B4
:100240000196909325018093240108959091460191
:10025000911123C021E030E0882311F030E020E04C
:10026000220F331FF901EC5FFE4F618170E0E82F30
:10027000F0E0EE0FFF1FEE5BFE4F408151819B01CE
:10028000241B350B37FF03C09A01261B370B253083
:1002900031051CF02CDF81E0089580E0089590E0A6
:1002A0009C01220F331FF901E05EFE4F60817181D6
:1002B0006230710514F1FC01E45EFE4F40811416BA
:1002C0008CF06091840070918500225D3E4FD901D1
:1002D0006D937C93845D9E4F22E0DC012C934F5FF5
:1002E0004083089561507109842F042E000C990BEE
:1002F00086179707A4F310820895845D9E4F41E00E
:10030000FC0140838091840090918500225D3E4FE6
:10031000D9018D939C93089590E0DC01AA5EBE4FB5
:100320002C91222321F02130A1F01C920895FC0190
:10033000E45DFE4F21E020834091840050918500D0
:10034000880F991FFC01E25DFE4F518340832C937F
:1003500008959C01220F331FF901E85EFE4F408192
:100360005181FC01E45DFE4F4333510564F482E0AA
:1003700080838091840090918500225D3E4FF90139
:1003800091838083D2CF108282E08C930895B0E075
:10039000A0E0ECECF1E0D7C2C82F13DF7C01D0E085
:1003A000CE018A5E9E4F6C01FC01808182309CF1FF
:1003B0008E01000F111FF801E85EFE4FA080B18092
:1003C000F3E3AF16B1043CF114DF9C0184E1829F9A
:1003D000F001839FF00D112488EE93E0B50198D2CF
:1003E000CF0182D2621B730BE616F706A0F0645FA2
:1003F0007F4F6E157F0578F0C45DDE4F82E0888305
:100400008091840090918500F801E25DFE4F918318
:100410008083F6011082CDB7DEB7EAE0B0C28F92DA
:100420009F92BF92CF92DF92EF92FF920F931F9312
:10043000CF93DF93182FC82FD0E0FE01EF5FFE4F60
:1004400080819E01245D3E4F79018823A1F1813096
:1004500009F46CC0F7018081FE01E65DFE4F882340
:1004600009F474C0112309F464C0113009F464C0A4
:1004700084E18083F7012081CE01880F991FCA5C37
:10048000DE4F8E5C9E4F223008F059C020E031E0F4
:10049000FC013183208381E08883F7011082DF91A2
:1004A000CF911F910F91FF90EF90DF90CF90BF9071
:1004B0009F908F9008956E01CC0CDD1CC601805E6C
:1004C0009E4F4C01FC01808191811816190614F28F
:1004D0008091240190912501029708F4BBCF71DE31
:1004E000B82E092F86DEF4016081718171956195C6
:1004F0007109FAD18B2D902FF7D1DE01A25EBE4F8C
:100500000D9790F48C918111A5CF809184009091EA
:100510008500F601E25DFE4F9183808382E0F70162
:10052000808381E08C9396CF1C9294CF812F2FDF14
:1005300091CF5B9A589A9CCF5E9A5D9A99CF20E8AA
:1005400030E0FC013183208382E0A6CF80818111DD
:100550000BC0112331F0113009F09FCF5E985D98E8
:100560009CCF5B98589899CF8150808396CF90E02C
:10057000FC01EF5FFE4F2081222319F0213031F082
:100580000895845E9E4FFC01108208958A5E9E4FFE
:10059000FACF8091010161E0882321F062E081308F
:1005A00009F060E080910201882341F0813009F474
:1005B0006860609590E080E0FDD108956460F9CFB7
:1005C000E82FF0E0EF5FFE4F9081992321F091300A
:1005D00029F0CDDF089591E09083FBCF1082F9CF11
:1005E000B0E0A0E0E5EFF2E0B0C18EE3E82E81E0FC
:1005F000F82E08E311E0CCE3D1E0C12C8C2DD3DD43
:10060000D82EF70181917F01811126C0DD2041F0B4
:100610008091840090918500F801918380831882F5
:10062000F7013197D0820E5F1F4F219681E0C812EB
:1006300004C0CDB7DEB7E8E0A4C1CC24C394DECFBC
:1006400020918400309185002150310916C0DD20B1
:1006500039F38C2D8CDFE4CF88818111E1CF20919B
:10066000840030918500F801808191812817390735
:1006700038F32091840030918500281B390B2F39E5
:10068000344228F381E088838C2D9ADF82DFC8CF43
:1006900059980895299808955A9808952898089582
:1006A000519A529A219A209AF3DFF4DFF5DFF6DFB0
:1006B000E6E3F1E0118210820895CF93DF93249A4C
:1006C0002C98FEDCE6E2F1E01182108213821282A5
:1006D00010922501109224018EE291E0FC0111821A
:1006E0001082CAE2D1E01882A8E3B1E011961C9210
:1006F0001E922CE331E0F9011082FC011382128278
:10070000198213961C921E921297F9011182E1DC54
:10071000E9DCC6DF05DD2DDD1092800085E08093E9
:100720008100DF91CF910895B0E0A0E0E9E9F3E026
:100730000CC180914601843009F061C097DC1092B1
:1007400046014EDF2091410199B1892F8095881F84
:100750008827881F8093410197FD55C0211153C000
:1007600058DD11E00091400199B181E0292F2071FD
:1007700094FD80E08093400181E00827211100E092
:1007800052E3E52E51E0F52ED0E0C0E0CC2EDC2E79
:100790008C2F5CDD882349F0FE01EF5FFE4F8081E6
:1007A0008823B1F1813009F456C0112351F0FE01C4
:1007B000EF5FFE4F8081882309F444C0813009F443
:1007C0005FC0002311F08D2DD2DE8D2D28DEF701C4
:1007D00080819181FE01EA5CFE4F009709F453C0CD
:1007E0000197D7018D939C93892B09F04CC01082FF
:1007F000B1E0CB1609F45DC04BDF4EDF50C08F5F18
:10080000809346019ECF10E0ADCFC1E0D0E0BECFD7
:100810009E01220F331FF901EE5BFE4F8081918113
:1008200061E170E075D0CB01079791F097FF0DC0A3
:1008300068507109205E3E4FD9016D937C9311235E
:1008400009F4BFCF8D2D2BDDBCCF66507109F2CFDF
:1008500061E070E0EFCFCE01880F991FFC01E85EE8
:10086000FE4F8E5B9E4FDC018D919C916CE070E0A1
:100870004FD06E5C7F4F71836083112309F4A1CF49
:100880008D2D4ADD9ECF80818230C9F040F48823CF
:1008900009F4AECFE1E0CE1679F0FADE5A9A82E0A2
:1008A000E80EF11C219709F0B0CFCDB7DEB7E8E034
:1008B00068C0F0DEF3DEF3CFEDDE289AF0CFF1E092
:1008C000CF1611F0599A99CF299AF4CF84B714BE54
:1008D0008091600088618093600010926000EDDE7E
:1008E00023DFFECFF89474C0AA1BBB1B51E107C0E5
:1008F000AA1FBB1FA617B70710F0A61BB70B881FB0
:10090000991F5A95A9F780959095BC01CD0108953E
:1009100097FB072E16F4009406D077FD08D0E4DF8D
:1009200007FC05D03EF4909581959F4F08957095F2
:1009300061957F4F08952F923F924F925F926F92F1
:100940007F928F929F92AF92BF92CF92DF92EF925F
:10095000FF920F931F93CF93DF93CDB7DEB7CA1BE0
:10096000DB0B0FB6F894DEBF0FBECDBF09942A880B
:10097000398848885F846E847D848C849B84AA84B3
:10098000B984C884DF80EE80FD800C811B81AA8140
:10099000B981CE0FD11D0FB6F894DEBF0FBECDBF0B
:1009A000ED010895F999FECF92BD81BDF89A99277E
:1009B00080B50895262FF999FECF1FBA92BD81BD4B
:1009C00020BD0FB6F894FA9AF99A0FBE01960895D1
:0409D000F894FFCFC9
:0409D40040010000DE
:00000001FF
