:1000000019C033C032C031C030C02FC02EC02DC087
:100010002CC02BC02AC029C028C027C026C025C09C
:1000200024C023C022C021C020C01FC01EC01DC0CC
:100030001CC01BC011241FBECFEFD4E0DEBFCDBF5C
:1000400011E0A0E0B1E0E2EAF9E002C005900D9213
:10005000A430B107D9F711E0A4E0B1E001C01D92CE
:10006000A734B107E1F719D424C4CACF80917A002C
:1000700086FDFCCF209115018091780030917900A8
:10008000E22FF0E0EE0FFF1FEC5FFE4F90E0932BAE
:100090009183808381E0820F8093150190911401F8
:1000A000891710F0109215018091150187709091B9
:1000B0000001892B80937C0080917A00806480937A
:1000C0007A00089554985C9A1092400157985F9A6C
:1000D0001092410108953B983A98439A429A10929F
:1000E0003F0110923E010895539A509A569A559A9C
:1000F000089590E04AEF50E09A01261B370B880FD5
:10010000991FFC01EE5BFE4F37FF03C01182108286
:1001100008952B3F31051CF43183208308955183CA
:1001200040830895EAE7F0E08081876080838081E2
:1001300080688083109215018091000180937C007B
:1001400080818064808382E08093140180E68093C4
:10015000000181E0809346016091070170E080E03A
:10016000C8DF6091050170E081E0C3DF089580E0A1
:1001700090E0A1D3809580FD06C081FF06C091E08C
:100180009093010102C01092010182FD06C083FF1D
:1001900006C081E080930201089510920201089543
:1001A000811105C086B183FB882780F904C086B120
:1001B00082FB882780F991E0892708958091840047
:1001C0009091850020912801309129018217930791
:1001D00028F0809184009091850005C08091840072
:1001E000909185000197821B930B089540912801FF
:1001F000509129012091260130912701CA01821BCB
:10020000930B4217530708F4019708958091280132
:100210009091290190932701809326018091840079
:100220009091850090932901809328018091240169
:10023000909125018230910528F401969093250133
:1002400080932401089590914601911123C0E1E02B
:10025000F0E0882311F0E0E0F0E0EE0FFF1FEC5F2C
:10026000FE4F618170E0E82FF0E0EE0FFF1FEE5BC4
:10027000FE4F20813181AB01421B530B9A0157FF86
:1002800003C0319521953109253031051CF031DF4E
:1002900081E0089580E00895A0E0B0E0E1E5F1E0BC
:1002A00051C3C82FD0E08E01000F111FC801805E1E
:1002B0009E4F7C01FC0180819181181619065CF12A
:1002C0008091240190912501029728F177DF6C013C
:1002D0008DDFF7016081718171956195710901D39D
:1002E000C601FFD2FE01E25EFE4F0D9798F48081B9
:1002F000811111C08091840090918500D801A25D88
:10030000BE4F8D939C93C45DDE4F82E0888381E075
:10031000808301C01082CDB7DEB7E8E02FC3CF9352
:10032000DF9390E09C01220F331FF901E05EFE4F46
:1003300040815181FC01423051050CF1E45EFE4FD9
:10034000A0811A1674F06091840070918500E90113
:10035000C25DDE4F79836883EC01C45DDE4F22E02D
:100360002883415051098A2F992787FD909584173A
:10037000950714F0108210C0AF5FA0830DC0E45D3C
:10038000FE4F41E040838091840090918500F90107
:10039000E25DFE4F91838083DF91CF91089590E0DD
:1003A000FC01EA5EFE4F2081222319F0213099F0F2
:1003B00030C0DC01A45DBE4F41E04C93209184002D
:1003C00030918500DC01AA0FBB1FA25DBE4F2D93AB
:1003D0003C93408308959C01220F331FD901A85EEE
:1003E000BE4F4D915C91DC01A45DBE4F433351057E
:1003F00064F482E08C938091840090918500D9010F
:10040000A25DBE4F8D939C9304C01C9282E08083BA
:10041000089510820895A0E0B0E0E0E1F2E090C21B
:10042000C82FCCDE6C01D0E08E010A5E1E4FF801B1
:10043000808182309CF17E01EE0CFF1CF701E85EAA
:10044000FE4FA080B180F3E3AF16B1043CF1CEDEE5
:100450009C0184E1829FF001839FF00D112488EEBE
:1004600093E0B50152D2CF013CD2621B730BC6168A
:10047000D706A0F0645F7F4F6C157D0578F0C45DF2
:10048000DE4F82E088838091840090918500F7019F
:10049000E25DFE4F91838083F8011082CDB7DEB715
:1004A000EAE06AC21F93CF93DF93182FC82FD0E0E2
:1004B000FE01EF5FFE4F8081882329F0813029F40F
:1004C000812FA9DF02C0812FE7DEFE01E45DFE4F30
:1004D0008081DE01A65DBE4F882319F1112329F02A
:1004E000113029F45E9A5D9A02C05B9A589A84E1B1
:1004F0008C932081CE01880F991FCA5CDE4FDC01EE
:10050000AE5CBE4F223030F420E031E02D933C93BE
:1005100081E005C020E830E02D933C9382E08883A1
:100520000FC08C9181110AC0112329F0113041F4C0
:100530005E985D9805C05B98589802C081508C9376
:100540001082DF91CF911F91089590E0FC01EF5F41
:10055000FE4F2081222319F0213029F00895FC015B
:10056000E45EFE4F03C0FC01EA5EFE4F1082089578
:1005700080910101882321F0813021F060E003C0E7
:1005800061E001C062E080910201882321F08130A6
:1005900019F4686001C06460609580E090E093D1D8
:1005A0000895E82FF0E0EF5FFE4F9081992321F04E
:1005B000913021F4108202C091E09083C6DF08954B
:1005C000A0E0B0E0E5EEF2E0BDC1EEE3EE2EE1E04A
:1005D000FE2ECCE3D1E008E311E0D12C8D2DE0DD3F
:1005E000C82EF701808181110BC0CC2021F1209110
:1005F000840030918500F8013183208318821BC06C
:100600008881811118C02091840030918500F80103
:100610004081518124173507E0F02091840030910A
:100620008500241B350B2F393442D0F081E08883BC
:100630008D2DB7DF9DDFF701C1927F01D394219605
:100640000E5F1F4FF2E0DF12C9CFCDB7DEB7E8E093
:1006500095C1209184003091850021503109E1CF6E
:10066000CC2049F38D2D71DFE6CF59980895299854
:1006700008955A98089528980895519A529A219A5F
:10068000209AF3DFF4DFF5DFF6DF109237011092E6
:1006900036010895249A2C9815DD109227011092A6
:1006A0002601109229011092280110922501109222
:1006B000240110922F0110922E0110922A01109203
:1006C00039011092380110923C01109231011092C0
:1006D000300110922B0110923B0110923A011092BE
:1006E0003D01F9DC01DDC9DF1DDD41DD1092800037
:1006F00085E080938100E1ECF0E08081877E80835B
:100700000895A82FB0E0FD01EE0FFF1FEE5CFE4F35
:1007100020813181AA5CBE4F2115310539F021506D
:10072000310931832083232B09F41C929C91913051
:1007300069F018F09230A9F00895882319F08130FB
:1007400019F0089592DF13C092DF14C0882319F0C6
:10075000813021F0089589DF5A9A089588DF289A18
:100760000895882319F0813021F00895599A81DF86
:100770000895299A80DF0895A0E0B0E0E1ECF3E06D
:10078000DEC080914601843021F470DC1092460175
:1007900003C08F5F8093460113DF9091410189B1BF
:1007A0008095881F8827881F80934101882319F02E
:1007B000992309F46EC0A12C9090400189B191E079
:1007C00082958170892780934001882311F09926B2
:1007D00001C0912C21E0C22E21E0D22E32E4E32E82
:1007E00031E0F32E8601C0E0D0E0B02EBC188B2D96
:1007F0002ADD882359F1F8018081882371F0813046
:1008000029F5F701808191816CE070E07ED06E5C0B
:100810007F4FFE01E85EFE4F17C0F7018081918196
:1008200061E170E072D0CB010797009741F097FF2C
:1008300003C06850710905C06650710902C061E0CB
:1008400070E0FE01E05EFE4F71836083AA2059F0E4
:10085000F8018081882329F0813029F48B2D9FDDD8
:1008600002C08B2D5CDD992011F08B2D6EDE8B2D5F
:1008700019DE8B2D46DF0F5F1F4F2296F2E0EF0E41
:10088000F11CC430D10509F0B0CFCDB7DEB7EBE035
:1008900072C0BCDCAA24A3948FCF84B714BE80910D
:1008A000600088618093600010926000F3DE64DF76
:1008B000FECFF89474C0F999FECF92BD81BDF89A2D
:1008C000992780B50895262FF999FECF1FBA92BDBA
:1008D00081BD20BD0FB6F894FA9AF99A0FBE019621
:1008E0000895AA1BBB1B51E107C0AA1FBB1FA61777
:1008F000B70710F0A61BB70B881F991F5A95A9F7C9
:1009000080959095BC01CD01089597FB072E16F4B4
:10091000009406D077FD08D0E4DF07FC05D03EF454
:10092000909581959F4F0895709561957F4F08959B
:100930002F923F924F925F926F927F928F929F92EF
:10094000AF92BF92CF92DF92EF92FF920F931F93DD
:10095000CF93DF93CDB7DEB7CA1BDB0B0FB6F8948E
:10096000DEBF0FBECDBF09942A88398848885F84CE
:100970006E847D848C849B84AA84B984C884DF803F
:10098000EE80FD800C811B81AA81B981CE0FD11D23
:100990000FB6F894DEBF0FBECDBFED010895F894F9
:0209A000FFCF87
:0409A2004001000010
:00000001FF
